{
  "_format": "hh3-artifact-1",
  "contractName": "ImplementerRegistry",
  "sourceName": "contracts/ImplementerRegistry.sol",
  "abi": [
    {
      "anonymous": false,
      "inputs": [
        {
          "indexed": false,
          "internalType": "address",
          "name": "implementer",
          "type": "address"
        },
        {
          "indexed": false,
          "internalType": "string",
          "name": "profileCID",
          "type": "string"
        },
        {
          "indexed": false,
          "internalType": "uint256",
          "name": "timestamp",
          "type": "uint256"
        }
      ],
      "name": "ImplementerProfileSet",
      "type": "event"
    },
    {
      "inputs": [
        {
          "internalType": "address",
          "name": "implementer",
          "type": "address"
        }
      ],
      "name": "getProfile",
      "outputs": [
        {
          "internalType": "string",
          "name": "",
          "type": "string"
        }
      ],
      "stateMutability": "view",
      "type": "function"
    },
    {
      "inputs": [
        {
          "internalType": "string",
          "name": "profileCID",
          "type": "string"
        }
      ],
      "name": "setProfile",
      "outputs": [],
      "stateMutability": "nonpayable",
      "type": "function"
    }
  ],
  "bytecode": "0x6080604052348015600e575f5ffd5b506104578061001c5f395ff3fe608060405234801561000f575f5ffd5b5060043610610034575f3560e01c80630f53a47014610038578063235b37b114610061575b5f5ffd5b61004b6100463660046101b7565b610076565b60405161005891906101e4565b60405180910390f35b61007461006f366004610219565b61011f565b005b6001600160a01b0381165f90815260208190526040902080546060919061009c90610287565b80601f01602080910402602001604051908101604052809291908181526020018280546100c890610287565b80156101135780601f106100ea57610100808354040283529160200191610113565b820191905f5260205f20905b8154815290600101906020018083116100f657829003601f168201915b50505050509050919050565b8061015c5760405162461bcd60e51b8152602060048201526009602482015268115354151657d0d25160ba1b604482015260640160405180910390fd5b335f90815260208190526040902061017582848361031f565b507fa4e86cfd0e80c14b7a270dff6323bdfda05f2e14a7257bdc974ed83a78456523338383426040516101ab94939291906103d9565b60405180910390a15050565b5f602082840312156101c7575f5ffd5b81356001600160a01b03811681146101dd575f5ffd5b9392505050565b602081525f82518060208401528060208501604085015e5f604082850101526040601f19601f83011684010191505092915050565b5f5f6020838503121561022a575f5ffd5b823567ffffffffffffffff811115610240575f5ffd5b8301601f81018513610250575f5ffd5b803567ffffffffffffffff811115610266575f5ffd5b856020828401011115610277575f5ffd5b6020919091019590945092505050565b600181811c9082168061029b57607f821691505b6020821081036102b957634e487b7160e01b5f52602260045260245ffd5b50919050565b634e487b7160e01b5f52604160045260245ffd5b601f82111561031a57805f5260205f20601f840160051c810160208510156102f85750805b601f840160051c820191505b81811015610317575f8155600101610304565b50505b505050565b67ffffffffffffffff831115610337576103376102bf565b61034b836103458354610287565b836102d3565b5f601f84116001811461037c575f85156103655750838201355b5f19600387901b1c1916600186901b178355610317565b5f83815260208120601f198716915b828110156103ab578685013582556020948501946001909201910161038b565b50868210156103c7575f1960f88860031b161c19848701351681555b505060018560011b0183555050505050565b6001600160a01b03851681526060602082018190528101839052828460808301375f608084830101525f6080601f19601f86011683010190508260408301529594505050505056fea2646970667358221220b54bdd0a6c9a7a17dfee35c2ee56ce051216bf2fa74ba2c33de227417968b8a364736f6c634300081d0033",
  "linkReferences": {},
  "deployedLinkReferences": {},
  "immutableReferences": {},
  "inputSourceName": "project/contracts/ImplementerRegistry.sol",
  "buildInfoId": "solc-0_8_29-3c1d4b2f7c1aed3c3765a2203bcf9224c8384e74"
}