{
  "_format": "hh3-artifact-1",
  "contractName": "PetitionRegistry",
  "sourceName": "contracts/PetitionRegistry.sol",
  "abi": [
    {
      "anonymous": false,
      "inputs": [
        {
          "indexed": false,
          "internalType": "uint256",
          "name": "petitionId",
          "type": "uint256"
        },
        {
          "indexed": false,
          "internalType": "address",
          "name": "creator",
          "type": "address"
        },
        {
          "indexed": false,
          "internalType": "string",
          "name": "contentCID",
          "type": "string"
        },
        {
          "indexed": false,
          "internalType": "uint256",
          "name": "timestamp",
          "type": "uint256"
        }
      ],
      "name": "PetitionCreated",
      "type": "event"
    },
    {
      "anonymous": false,
      "inputs": [
        {
          "indexed": false,
          "internalType": "uint256",
          "name": "petitionId",
          "type": "uint256"
        },
        {
          "indexed": false,
          "internalType": "address",
          "name": "supporter",
          "type": "address"
        },
        {
          "indexed": false,
          "internalType": "uint256",
          "name": "timestamp",
          "type": "uint256"
        }
      ],
      "name": "Supported",
      "type": "event"
    },
    {
      "inputs": [
        {
          "internalType": "string",
          "name": "contentCID",
          "type": "string"
        }
      ],
      "name": "createPetition",
      "outputs": [
        {
          "internalType": "uint256",
          "name": "petitionId",
          "type": "uint256"
        }
      ],
      "stateMutability": "nonpayable",
      "type": "function"
    },
    {
      "inputs": [
        {
          "internalType": "uint256",
          "name": "petitionId",
          "type": "uint256"
        }
      ],
      "name": "getPetition",
      "outputs": [
        {
          "internalType": "address",
          "name": "creator",
          "type": "address"
        },
        {
          "internalType": "string",
          "name": "contentCID",
          "type": "string"
        },
        {
          "internalType": "uint256",
          "name": "createdAt",
          "type": "uint256"
        },
        {
          "internalType": "uint256",
          "name": "supportCount",
          "type": "uint256"
        }
      ],
      "stateMutability": "view",
      "type": "function"
    },
    {
      "inputs": [
        {
          "internalType": "uint256",
          "name": "petitionId",
          "type": "uint256"
        },
        {
          "internalType": "address",
          "name": "supporter",
          "type": "address"
        }
      ],
      "name": "hasSupported",
      "outputs": [
        {
          "internalType": "bool",
          "name": "",
          "type": "bool"
        }
      ],
      "stateMutability": "view",
      "type": "function"
    },
    {
      "inputs": [
        {
          "internalType": "uint256",
          "name": "petitionId",
          "type": "uint256"
        }
      ],
      "name": "support",
      "outputs": [],
      "stateMutability": "nonpayable",
      "type": "function"
    },
    {
      "inputs": [],
      "name": "totalPetitions",
      "outputs": [
        {
          "internalType": "uint256",
          "name": "",
          "type": "uint256"
        }
      ],
      "stateMutability": "view",
      "type": "function"
    }
  ],
  "bytecode": "0x608060405260015f553480156012575f5ffd5b5061081a806100205f395ff3fe608060405234801561000f575f5ffd5b5060043610610055575f3560e01c80630c90ce421461005957806356c9493f146100855780636aa97f031461009a5780637cda6f70146100bb578063a2f9bae0146100c3575b5f5ffd5b61006c6100673660046104e0565b6100e6565b60405161007c94939291906104f7565b60405180910390f35b6100986100933660046104e0565b610204565b005b6100ad6100a8366004610549565b610339565b60405190815260200161007c565b6100ad6104a0565b6100d66100d13660046105b7565b6104b4565b604051901515815260200161007c565b5f8181526001602052604081206004810154606091839182919060ff166101495760405162461bcd60e51b815260206004820152601260248201527114115512551253d397d393d517d193d5539160721b60448201526064015b60405180910390fd5b8054600282015460038301546001840180546001600160a01b0390941693909291908390610176906105f0565b80601f01602080910402602001604051908101604052809291908181526020018280546101a2906105f0565b80156101ed5780601f106101c4576101008083540402835291602001916101ed565b820191905f5260205f20905b8154815290600101906020018083116101d057829003601f168201915b505050505092509450945094509450509193509193565b5f818152600160205260409020600481015460ff1661025a5760405162461bcd60e51b815260206004820152601260248201527114115512551253d397d393d517d193d5539160721b6044820152606401610140565b5f82815260026020908152604080832033845290915290205460ff16156102b75760405162461bcd60e51b81526020600482015260116024820152701053149150511657d4d5541413d4951151607a1b6044820152606401610140565b5f8281526002602090815260408083203384529091528120805460ff19166001908117909155600383018054919290916102f290849061063c565b909155505060408051838152336020820152428183015290517fba8fecbcfbf3aa1635eb5b5a41ef05e026bec2e6bce87d68262471a8315862dc9181900360600190a15050565b5f816103735760405162461bcd60e51b8152602060048201526009602482015268115354151657d0d25160ba1b6044820152606401610140565b5f805490806103818361064f565b9190505590506040518060a00160405280336001600160a01b0316815260200184848080601f0160208091040260200160405190810160405280939291908181526020018383808284375f920182905250938552505042602080850191909152604080850184905260016060909501859052868452848252909220845181546001600160a01b0319166001600160a01b0390911617815591840151919283019161042c9150826106c7565b506040828101516002830155606083015160038301556080909201516004909101805460ff1916911515919091179055517f7aca0a0d608ec3f8b86a928e5106f8302ae571fe35bbad28b6f64bb54036c5bb906104929083903390879087904290610782565b60405180910390a192915050565b5f60015f546104af91906107d1565b905090565b5f8281526002602090815260408083206001600160a01b038516845290915290205460ff165b92915050565b5f602082840312156104f0575f5ffd5b5035919050565b60018060a01b0385168152608060208201525f8451806080840152806020870160a085015e5f60a0828501015260a0601f19601f83011684010191505083604083015282606083015295945050505050565b5f5f6020838503121561055a575f5ffd5b823567ffffffffffffffff811115610570575f5ffd5b8301601f81018513610580575f5ffd5b803567ffffffffffffffff811115610596575f5ffd5b8560208284010111156105a7575f5ffd5b6020919091019590945092505050565b5f5f604083850312156105c8575f5ffd5b8235915060208301356001600160a01b03811681146105e5575f5ffd5b809150509250929050565b600181811c9082168061060457607f821691505b60208210810361062257634e487b7160e01b5f52602260045260245ffd5b50919050565b634e487b7160e01b5f52601160045260245ffd5b808201808211156104da576104da610628565b5f6001820161066057610660610628565b5060010190565b634e487b7160e01b5f52604160045260245ffd5b601f8211156106c257805f5260205f20601f840160051c810160208510156106a05750805b601f840160051c820191505b818110156106bf575f81556001016106ac565b50505b505050565b815167ffffffffffffffff8111156106e1576106e1610667565b6106f5816106ef84546105f0565b8461067b565b6020601f821160018114610727575f83156107105750848201515b5f19600385901b1c1916600184901b1784556106bf565b5f84815260208120601f198516915b828110156107565787850151825560209485019460019092019101610736565b508482101561077357868401515f19600387901b60f8161c191681555b50505050600190811b01905550565b8581526001600160a01b03851660208201526080604082018190528101839052828460a08301375f60a084830101525f60a0601f19601f86011683010190508260608301529695505050505050565b818103818111156104da576104da61062856fea2646970667358221220d2b83c07369512212d9abda1833db5e4ac2e80948537550560939bb6827fae0b64736f6c634300081d0033",
  "linkReferences": {},
  "deployedLinkReferences": {},
  "immutableReferences": {},
  "inputSourceName": "project/contracts/PetitionRegistry.sol",
  "buildInfoId": "solc-0_8_29-80bd4b2286cf86eedef4c0ad4ac96b052e38e191"
}