{
  "_format": "hh3-artifact-1",
  "contractName": "EscrowMilestones",
  "sourceName": "contracts/EscrowMilestones.sol",
  "abi": [
    {
      "inputs": [
        {
          "internalType": "address",
          "name": "petitionRegistryAddress",
          "type": "address"
        },
        {
          "internalType": "address",
          "name": "implementerRegistryAddress",
          "type": "address"
        },
        {
          "internalType": "uint256",
          "name": "votingWindowSeconds",
          "type": "uint256"
        }
      ],
      "stateMutability": "nonpayable",
      "type": "constructor"
    },
    {
      "anonymous": false,
      "inputs": [
        {
          "indexed": false,
          "internalType": "uint256",
          "name": "petitionId",
          "type": "uint256"
        },
        {
          "indexed": false,
          "internalType": "address",
          "name": "funder",
          "type": "address"
        },
        {
          "indexed": false,
          "internalType": "uint256",
          "name": "amount",
          "type": "uint256"
        },
        {
          "indexed": false,
          "internalType": "uint256",
          "name": "timestamp",
          "type": "uint256"
        }
      ],
      "name": "Funded",
      "type": "event"
    },
    {
      "anonymous": false,
      "inputs": [
        {
          "indexed": false,
          "internalType": "uint256",
          "name": "petitionId",
          "type": "uint256"
        },
        {
          "indexed": false,
          "internalType": "address",
          "name": "implementer",
          "type": "address"
        },
        {
          "indexed": false,
          "internalType": "string",
          "name": "profileCID",
          "type": "string"
        },
        {
          "indexed": false,
          "internalType": "uint256",
          "name": "timestamp",
          "type": "uint256"
        }
      ],
      "name": "ImplementerAccepted",
      "type": "event"
    },
    {
      "anonymous": false,
      "inputs": [
        {
          "indexed": false,
          "internalType": "uint256",
          "name": "petitionId",
          "type": "uint256"
        },
        {
          "indexed": false,
          "internalType": "uint256",
          "name": "milestoneIndex",
          "type": "uint256"
        },
        {
          "indexed": false,
          "internalType": "address",
          "name": "approver",
          "type": "address"
        },
        {
          "indexed": false,
          "internalType": "uint256",
          "name": "timestamp",
          "type": "uint256"
        }
      ],
      "name": "MilestoneApproved",
      "type": "event"
    },
    {
      "anonymous": false,
      "inputs": [
        {
          "indexed": false,
          "internalType": "uint256",
          "name": "petitionId",
          "type": "uint256"
        },
        {
          "indexed": false,
          "internalType": "uint256",
          "name": "milestoneIndex",
          "type": "uint256"
        },
        {
          "indexed": false,
          "internalType": "string",
          "name": "proofCID",
          "type": "string"
        },
        {
          "indexed": false,
          "internalType": "uint256",
          "name": "timestamp",
          "type": "uint256"
        }
      ],
      "name": "MilestoneSubmitted",
      "type": "event"
    },
    {
      "anonymous": false,
      "inputs": [
        {
          "indexed": false,
          "internalType": "uint256",
          "name": "petitionId",
          "type": "uint256"
        },
        {
          "indexed": false,
          "internalType": "uint256",
          "name": "milestoneIndex",
          "type": "uint256"
        },
        {
          "indexed": false,
          "internalType": "uint256",
          "name": "amount",
          "type": "uint256"
        },
        {
          "indexed": false,
          "internalType": "address",
          "name": "implementer",
          "type": "address"
        },
        {
          "indexed": false,
          "internalType": "uint256",
          "name": "timestamp",
          "type": "uint256"
        }
      ],
      "name": "PayoutReleased",
      "type": "event"
    },
    {
      "anonymous": false,
      "inputs": [
        {
          "indexed": false,
          "internalType": "uint256",
          "name": "petitionId",
          "type": "uint256"
        },
        {
          "indexed": false,
          "internalType": "address",
          "name": "claimant",
          "type": "address"
        },
        {
          "indexed": false,
          "internalType": "uint256",
          "name": "amount",
          "type": "uint256"
        },
        {
          "indexed": false,
          "internalType": "uint256",
          "name": "timestamp",
          "type": "uint256"
        }
      ],
      "name": "RefundsClaimed",
      "type": "event"
    },
    {
      "inputs": [
        {
          "internalType": "uint256",
          "name": "petitionId",
          "type": "uint256"
        }
      ],
      "name": "acceptImplementer",
      "outputs": [],
      "stateMutability": "nonpayable",
      "type": "function"
    },
    {
      "inputs": [
        {
          "internalType": "uint256",
          "name": "petitionId",
          "type": "uint256"
        }
      ],
      "name": "claimRefund",
      "outputs": [],
      "stateMutability": "nonpayable",
      "type": "function"
    },
    {
      "inputs": [
        {
          "internalType": "uint256",
          "name": "petitionId",
          "type": "uint256"
        },
        {
          "internalType": "uint256[]",
          "name": "amounts",
          "type": "uint256[]"
        },
        {
          "internalType": "uint256",
          "name": "deadline",
          "type": "uint256"
        }
      ],
      "name": "configureMilestones",
      "outputs": [],
      "stateMutability": "nonpayable",
      "type": "function"
    },
    {
      "inputs": [
        {
          "internalType": "uint256",
          "name": "petitionId",
          "type": "uint256"
        },
        {
          "internalType": "uint256",
          "name": "milestoneIndex",
          "type": "uint256"
        }
      ],
      "name": "finalizeMilestone",
      "outputs": [],
      "stateMutability": "nonpayable",
      "type": "function"
    },
    {
      "inputs": [
        {
          "internalType": "uint256",
          "name": "petitionId",
          "type": "uint256"
        }
      ],
      "name": "fund",
      "outputs": [],
      "stateMutability": "payable",
      "type": "function"
    },
    {
      "inputs": [
        {
          "internalType": "uint256",
          "name": "petitionId",
          "type": "uint256"
        },
        {
          "internalType": "address",
          "name": "funder",
          "type": "address"
        }
      ],
      "name": "fundedAmount",
      "outputs": [
        {
          "internalType": "uint256",
          "name": "",
          "type": "uint256"
        }
      ],
      "stateMutability": "view",
      "type": "function"
    },
    {
      "inputs": [
        {
          "internalType": "uint256",
          "name": "petitionId",
          "type": "uint256"
        }
      ],
      "name": "getEscrow",
      "outputs": [
        {
          "internalType": "address",
          "name": "creator",
          "type": "address"
        },
        {
          "internalType": "address",
          "name": "implementer",
          "type": "address"
        },
        {
          "internalType": "uint256",
          "name": "deadline",
          "type": "uint256"
        },
        {
          "internalType": "uint256",
          "name": "totalFunded",
          "type": "uint256"
        },
        {
          "internalType": "uint256",
          "name": "totalPaid",
          "type": "uint256"
        },
        {
          "internalType": "uint256",
          "name": "milestoneCount",
          "type": "uint256"
        },
        {
          "internalType": "uint256",
          "name": "currentMilestone",
          "type": "uint256"
        },
        {
          "internalType": "bool",
          "name": "initialized",
          "type": "bool"
        }
      ],
      "stateMutability": "view",
      "type": "function"
    },
    {
      "inputs": [
        {
          "internalType": "uint256",
          "name": "petitionId",
          "type": "uint256"
        },
        {
          "internalType": "uint256",
          "name": "milestoneIndex",
          "type": "uint256"
        }
      ],
      "name": "getMilestone",
      "outputs": [
        {
          "internalType": "uint256",
          "name": "amount",
          "type": "uint256"
        },
        {
          "internalType": "bool",
          "name": "approved",
          "type": "bool"
        },
        {
          "internalType": "bool",
          "name": "paid",
          "type": "bool"
        },
        {
          "internalType": "string",
          "name": "proofCID",
          "type": "string"
        },
        {
          "internalType": "uint256",
          "name": "submittedAt",
          "type": "uint256"
        },
        {
          "internalType": "uint256",
          "name": "submissionCount",
          "type": "uint256"
        }
      ],
      "stateMutability": "view",
      "type": "function"
    },
    {
      "inputs": [
        {
          "internalType": "uint256",
          "name": "petitionId",
          "type": "uint256"
        },
        {
          "internalType": "uint256",
          "name": "milestoneIndex",
          "type": "uint256"
        }
      ],
      "name": "getVote",
      "outputs": [
        {
          "internalType": "uint256",
          "name": "yesVotes",
          "type": "uint256"
        },
        {
          "internalType": "uint256",
          "name": "noVotes",
          "type": "uint256"
        },
        {
          "internalType": "uint256",
          "name": "endTime",
          "type": "uint256"
        },
        {
          "internalType": "bool",
          "name": "finalized",
          "type": "bool"
        },
        {
          "internalType": "uint256",
          "name": "round",
          "type": "uint256"
        }
      ],
      "stateMutability": "view",
      "type": "function"
    },
    {
      "inputs": [],
      "name": "implementerRegistry",
      "outputs": [
        {
          "internalType": "contract IImplementerRegistry",
          "name": "",
          "type": "address"
        }
      ],
      "stateMutability": "view",
      "type": "function"
    },
    {
      "inputs": [
        {
          "internalType": "address",
          "name": "implementer",
          "type": "address"
        }
      ],
      "name": "pendingPayout",
      "outputs": [
        {
          "internalType": "uint256",
          "name": "",
          "type": "uint256"
        }
      ],
      "stateMutability": "view",
      "type": "function"
    },
    {
      "inputs": [],
      "name": "petitionRegistry",
      "outputs": [
        {
          "internalType": "contract IPetitionRegistry",
          "name": "",
          "type": "address"
        }
      ],
      "stateMutability": "view",
      "type": "function"
    },
    {
      "inputs": [
        {
          "internalType": "uint256",
          "name": "petitionId",
          "type": "uint256"
        },
        {
          "internalType": "uint256",
          "name": "milestoneIndex",
          "type": "uint256"
        },
        {
          "internalType": "string",
          "name": "proofCID",
          "type": "string"
        }
      ],
      "name": "submitMilestone",
      "outputs": [],
      "stateMutability": "nonpayable",
      "type": "function"
    },
    {
      "inputs": [
        {
          "internalType": "uint256",
          "name": "petitionId",
          "type": "uint256"
        },
        {
          "internalType": "uint256",
          "name": "milestoneIndex",
          "type": "uint256"
        },
        {
          "internalType": "bool",
          "name": "support",
          "type": "bool"
        }
      ],
      "name": "voteOnMilestone",
      "outputs": [],
      "stateMutability": "nonpayable",
      "type": "function"
    },
    {
      "inputs": [],
      "name": "votingWindow",
      "outputs": [
        {
          "internalType": "uint256",
          "name": "",
          "type": "uint256"
        }
      ],
      "stateMutability": "view",
      "type": "function"
    },
    {
      "inputs": [],
      "name": "withdrawPayout",
      "outputs": [],
      "stateMutability": "nonpayable",
      "type": "function"
    }
  ],
  "bytecode": "0x60e06040526001600755348015610014575f5ffd5b5060405161205a38038061205a8339810160408190526100339161014d565b6001600160a01b0383166100815760405162461bcd60e51b815260206004820152601060248201526f494e56414c49445f524547495354525960801b60448201526064015b60405180910390fd5b6001600160a01b0382166100d75760405162461bcd60e51b815260206004820152601c60248201527f494e56414c49445f494d504c454d454e5445525f5245474953545259000000006044820152606401610078565b5f81116101175760405162461bcd60e51b815260206004820152600e60248201526d494e56414c49445f57494e444f5760901b6044820152606401610078565b6001600160a01b03928316608052911660a05260c052610186565b80516001600160a01b0381168114610148575f5ffd5b919050565b5f5f5f6060848603121561015f575f5ffd5b61016884610132565b925061017660208501610132565b9150604084015190509250925092565b60805160a05160c051611e956101c55f395f8181610284015261074e01525f818161018a015261160d01525f81816103bd01526112260152611e955ff3fe6080604052600436106100ef575f3560e01c80637d19e59611610087578063ca1d209d11610057578063ca1d209d146103df578063d75705c0146103f2578063e6810a5014610411578063fa38124314610445575f5ffd5b80637d19e596146102a65780638ed9895c1461035c578063afc1d2891461038d578063b92267de146103ac575f5ffd5b80632558337c116100c25780632558337c1461017957806349330cb8146101c45780635b7baf641461025457806372a6300a14610273575f5ffd5b80630390e07a146100f357806306c0e841146101145780630e783d6d146101285780631ddd206f14610147575b5f5ffd5b3480156100fe575f5ffd5b5061011261010d3660046117b3565b610464565b005b34801561011f575f5ffd5b506101126107ce565b348015610133575f5ffd5b5061011261014236600461182f565b61085e565b348015610152575f5ffd5b50610166610161366004611880565b610a24565b6040519081526020015b60405180910390f35b348015610184575f5ffd5b506101ac7f000000000000000000000000000000000000000000000000000000000000000081565b6040516001600160a01b039091168152602001610170565b3480156101cf575f5ffd5b5061022a6101de3660046118ae565b5f8281526004602090815260408083208484528252808320805460018201546002830154600390930154978652600585528386209686529590935292205490949293919260ff90921691565b6040805195865260208601949094529284019190915215156060830152608082015260a001610170565b34801561025f575f5ffd5b5061011261026e3660046118ce565b610a4d565b34801561027e575f5ffd5b506101667f000000000000000000000000000000000000000000000000000000000000000081565b3480156102b1575f5ffd5b506103146102c03660046118ce565b5f90815260208190526040902080546001820154600283015460038401546004850154600586015460068701546007909701546001600160a01b039687169896909516969395929491939092909160ff1690565b604080516001600160a01b03998a168152989097166020890152958701949094526060860192909252608085015260a084015260c0830152151560e082015261010001610170565b348015610367575f5ffd5b5061037b6103763660046118ae565b610c13565b60405161017096959493929190611913565b348015610398575f5ffd5b506101126103a73660046118ae565b610d45565b3480156103b7575f5ffd5b506101ac7f000000000000000000000000000000000000000000000000000000000000000081565b6101126103ed3660046118ce565b6110ce565b3480156103fd575f5ffd5b5061011261040c366004611950565b61120e565b34801561041c575f5ffd5b5061016661042b3660046119d1565b6001600160a01b03165f9081526003602052604090205490565b348015610450575f5ffd5b5061011261045f3660046118ce565b611579565b5f848152602081905260409020600781015460ff1661049e5760405162461bcd60e51b8152600401610495906119f3565b60405180910390fd5b60018101546001600160a01b031633146104ec5760405162461bcd60e51b815260206004820152600f60248201526e2727aa2fa4a6a82622a6a2a72a22a960891b6044820152606401610495565b806006015484146105375760405162461bcd60e51b81526020600482015260156024820152744e4f545f43555252454e545f4d494c4553544f4e4560581b6044820152606401610495565b5f8581526001602052604090205484106105635760405162461bcd60e51b815260040161049590611a1c565b8161059c5760405162461bcd60e51b8152602060048201526009602482015268115354151657d0d25160ba1b6044820152606401610495565b5f858152600460209081526040808320878452825280832088845260058352818420888552909252909120541561060f57600381015460ff1661060f5760405162461bcd60e51b815260206004820152600b60248201526a564f54455f41435449564560a81b6044820152606401610495565b5f86815260016020526040812080548790811061062e5761062e611a47565b5f9182526020909120600590910201600181015490915060ff16156106885760405162461bcd60e51b815260206004820152601060248201526f1053149150511657d054141493d5915160821b6044820152606401610495565b60028160040154106106ce5760405162461bcd60e51b815260206004820152600f60248201526e4d41585f5355424d495353494f4e5360881b6044820152606401610495565b600281016106dd858783611aeb565b504281600301819055506001816004015f8282546106fb9190611bb9565b90915550505f878152600560209081526040808320898452909152812054610724906001611bb9565b5f8981526005602090815260408083208b84529091528120829055808555600185015590506107737f000000000000000000000000000000000000000000000000000000000000000042611bb9565b600284015560038301805460ff191690556040517f7f4d80269cdce8cfe4d74c1ac8ede5d2940be71300d92461a70468bfa0888cac906107bc908a908a908a908a904290611bcc565b60405180910390a15050505050505050565b6007546001146107f05760405162461bcd60e51b815260040161049590611c11565b6002600755335f908152600360205260409020548061083d5760405162461bcd60e51b81526020600482015260096024820152681393d7d4105653d55560ba1b6044820152606401610495565b335f81815260036020526040812055610856908261171d565b506001600755565b5f8381526002602090815260408083203384529091529020546108b05760405162461bcd60e51b815260206004820152600a6024820152692727aa2fa32aa72222a960b11b6044820152606401610495565b5f83815260046020908152604080832085845282528083208684526005835281842086855290925290912054806109195760405162461bcd60e51b815260206004820152600d60248201526c2727afa9aaa126a4a9a9a4a7a760991b6044820152606401610495565b816002015442111561095d5760405162461bcd60e51b815260206004820152600d60248201526c1593d5125391d7d0d313d4d151609a1b6044820152606401610495565b5f858152600660209081526040808320878452825280832033845290915290205481116109bc5760405162461bcd60e51b815260206004820152600d60248201526c1053149150511657d593d51151609a1b6044820152606401610495565b5f858152600660209081526040808320878452825280832033845290915290208190558215610a03576001825f015f8282546109f89190611bb9565b90915550610a1d9050565b6001826001015f828254610a179190611bb9565b90915550505b5050505050565b5f8281526002602090815260408083206001600160a01b03851684529091529020545b92915050565b600754600114610a6f5760405162461bcd60e51b815260040161049590611c11565b600260079081555f8281526020819052604090209081015460ff16610aa65760405162461bcd60e51b8152600401610495906119f3565b80600201544211610af05760405162461bcd60e51b8152602060048201526014602482015273111150511312539157d393d517d4915050d2115160621b6044820152606401610495565b600481015415610b315760405162461bcd60e51b815260206004820152600c60248201526b5041594f5554535f4d41444560a01b6044820152606401610495565b5f82815260026020908152604080832033845290915290205480610b845760405162461bcd60e51b815260206004820152600a6024820152692727aa2fa32aa72222a960b11b6044820152606401610495565b5f8381526002602090815260408083203384529091528120819055600383018054839290610bb3908490611c35565b90915550610bc39050338261171d565b604080518481523360208201529081018290524260608201527fdc080cdf2052fca7dc9804f72b2cf9a50f66f376dfc62efdb5d53426e47941d59060800160405180910390a15050600160075550565b5f8281526001602052604081205481908190606090829081908710610c4a5760405162461bcd60e51b815260040161049590611a1c565b5f888152600160205260408120805489908110610c6957610c69611a47565b5f91825260209091206005909102018054600182015460038301546004840154600285018054959650939460ff8085169561010090950416939291908390610cb090611a6f565b80601f0160208091040260200160405190810160405280929190818152602001828054610cdc90611a6f565b8015610d275780601f10610cfe57610100808354040283529160200191610d27565b820191905f5260205f20905b815481529060010190602001808311610d0a57829003601f168201915b50505050509250965096509650965096509650509295509295509295565b600754600114610d675760405162461bcd60e51b815260040161049590611c11565b60026007555f8281526004602090815260408083208484528252808320858452600583528184208585529092529091205480610dd55760405162461bcd60e51b815260206004820152600d60248201526c2727afa9aaa126a4a9a9a4a7a760991b6044820152606401610495565b600382015460ff1615610e1b5760405162461bcd60e51b815260206004820152600e60248201526d1593d51157d1925390531256915160921b6044820152606401610495565b81600201544211610e5c5760405162461bcd60e51b815260206004820152600b60248201526a564f54455f41435449564560a81b6044820152606401610495565b60038201805460ff19166001908117909155820154825411156110c3575f8481526020818152604080832060019092528220805491929186908110610ea357610ea3611a47565b5f9182526020909120600590910201600181015490915060ff1615610efd5760405162461bcd60e51b815260206004820152601060248201526f1053149150511657d054141493d5915160821b6044820152606401610495565b60018201546001600160a01b0316610f485760405162461bcd60e51b815260206004820152600e60248201526d2727afa4a6a82622a6a2a72a22a960911b6044820152606401610495565b5f82600401548360030154610f5d9190611c35565b8254909150811015610fa65760405162461bcd60e51b8152602060048201526012602482015271494e53554646494349454e545f46554e445360701b6044820152606401610495565b60018201805461ffff191661010117905581546004840180545f90610fcc908490611bb9565b925050819055506001836006015f828254610fe79190611bb9565b9091555050815460018401546001600160a01b03165f9081526003602052604081208054909190611019908490611bb9565b90915550506040805188815260208101889052338183015242606082015290517f7cb755619c64d38ead649a465619c5ead41bbbbeced6b7671a44c050e9eff7279181900360800190a181546001840154604080518a8152602081018a9052908101929092526001600160a01b031660608201524260808201527e74327c2f3dd813096014eb727562b87806aee3a64e3de246e2232c15edd6d89060a00160405180910390a15050505b505060016007555050565b5f818152602081905260409020600781015460ff166110ff5760405162461bcd60e51b8152600401610495906119f3565b80600201544211156111445760405162461bcd60e51b815260206004820152600e60248201526d11955391125391d7d0d313d4d15160921b6044820152606401610495565b5f34116111815760405162461bcd60e51b815260206004820152600b60248201526a16915493d7d05353d5539560aa1b6044820152606401610495565b34816003015f8282546111949190611bb9565b90915550505f828152600260209081526040808320338452909152812080543492906111c1908490611bb9565b909155505060408051838152336020820152348183015242606082015290517f9a98994924b3f454e430a7e3c884aa145467ff2913f30a4b4c428a25797c79759181900360800190a15050565b604051630648672160e11b8152600481018590525f907f00000000000000000000000000000000000000000000000000000000000000006001600160a01b031690630c90ce42906024015f60405180830381865afa158015611272573d5f5f3e3d5ffd5b505050506040513d5f823e601f3d908101601f191682016040526112999190810190611cd3565b50919250506001600160a01b03821690506112eb5760405162461bcd60e51b815260206004820152601260248201527114115512551253d397d393d517d193d5539160721b6044820152606401610495565b6001600160a01b03811633146113315760405162461bcd60e51b815260206004820152600b60248201526a2727aa2fa1a922a0aa27a960a91b6044820152606401610495565b8261136e5760405162461bcd60e51b815260206004820152600d60248201526c4e4f5f4d494c4553544f4e455360981b6044820152606401610495565b4282116113b05760405162461bcd60e51b815260206004820152601060248201526f494e56414c49445f444541444c494e4560801b6044820152606401610495565b5f858152602081905260409020600781015460ff16156114085760405162461bcd60e51b81526020600482015260136024820152721053149150511657d253925512505312569151606a1b6044820152606401610495565b835f5b81811015611534575f87878381811061142657611426611a47565b905060200201351161144a5760405162461bcd60e51b815260040161049590611a1c565b60015f8981526020019081526020015f206040518060c0016040528089898581811061147857611478611a47565b602090810292909201358352505f8282018190526040808401829052805180840182528281526060808601919091526080850183905260a09094018290528554600181810188559683529183902085516005909302019182559184015194810180549285015115156101000261ff00199615159690961661ffff199093169290921794909417905581015190919060028201906115159082611d30565b506080820151600382015560a09091015160049091015560010161140b565b5081546001600160a01b0319166001600160a01b0393909316929092178155600281019290925560058201555f6006820155600701805460ff19166001179055505050565b5f818152602081905260409020600781015460ff166115aa5760405162461bcd60e51b8152600401610495906119f3565b60018101546001600160a01b0316156115f75760405162461bcd60e51b815260206004820152600f60248201526e125354131153515395115497d4d155608a1b6044820152606401610495565b60405162f53a4760e41b81523360048201525f907f00000000000000000000000000000000000000000000000000000000000000006001600160a01b031690630f53a470906024015f60405180830381865afa158015611659573d5f5f3e3d5ffd5b505050506040513d5f823e601f3d908101601f191682016040526116809190810190611deb565b90505f8151116116c45760405162461bcd60e51b815260206004820152600f60248201526e141493d192531157d393d517d4d155608a1b6044820152606401610495565b6001820180546001600160a01b031916339081179091556040517fb87251b9065326805696ec1aa177b474e653611e55c737474953b3f40ccd2d26916117109186919085904290611e25565b60405180910390a1505050565b5f826001600160a01b0316826040515f6040518083038185875af1925050503d805f8114611766576040519150601f19603f3d011682016040523d82523d5f602084013e61176b565b606091505b50509050806117ae5760405162461bcd60e51b815260206004820152600f60248201526e1514905394d1915497d19052531151608a1b6044820152606401610495565b505050565b5f5f5f5f606085870312156117c6575f5ffd5b8435935060208501359250604085013567ffffffffffffffff8111156117ea575f5ffd5b8501601f810187136117fa575f5ffd5b803567ffffffffffffffff811115611810575f5ffd5b876020828401011115611821575f5ffd5b949793965060200194505050565b5f5f5f60608486031215611841575f5ffd5b83359250602084013591506040840135801515811461185e575f5ffd5b809150509250925092565b6001600160a01b038116811461187d575f5ffd5b50565b5f5f60408385031215611891575f5ffd5b8235915060208301356118a381611869565b809150509250929050565b5f5f604083850312156118bf575f5ffd5b50508035926020909101359150565b5f602082840312156118de575f5ffd5b5035919050565b5f81518084528060208401602086015e5f602082860101526020601f19601f83011685010191505092915050565b8681528515156020820152841515604082015260c060608201525f61193b60c08301866118e5565b60808301949094525060a00152949350505050565b5f5f5f5f60608587031215611963575f5ffd5b84359350602085013567ffffffffffffffff811115611980575f5ffd5b8501601f81018713611990575f5ffd5b803567ffffffffffffffff8111156119a6575f5ffd5b8760208260051b84010111156119ba575f5ffd5b949760209190910196509394604001359392505050565b5f602082840312156119e1575f5ffd5b81356119ec81611869565b9392505050565b6020808252600f908201526e1393d517d253925512505312569151608a1b604082015260600190565b602080825260119082015270494e56414c49445f4d494c4553544f4e4560781b604082015260600190565b634e487b7160e01b5f52603260045260245ffd5b634e487b7160e01b5f52604160045260245ffd5b600181811c90821680611a8357607f821691505b602082108103611aa157634e487b7160e01b5f52602260045260245ffd5b50919050565b601f8211156117ae57805f5260205f20601f840160051c81016020851015611acc5750805b601f840160051c820191505b81811015610a1d575f8155600101611ad8565b67ffffffffffffffff831115611b0357611b03611a5b565b611b1783611b118354611a6f565b83611aa7565b5f601f841160018114611b48575f8515611b315750838201355b5f19600387901b1c1916600186901b178355610a1d565b5f83815260208120601f198716915b82811015611b775786850135825560209485019460019092019101611b57565b5086821015611b93575f1960f88860031b161c19848701351681555b505060018560011b0183555050505050565b634e487b7160e01b5f52601160045260245ffd5b80820180821115610a4757610a47611ba5565b85815284602082015260806040820152826080820152828460a08301375f60a084830101525f60a0601f19601f86011683010190508260608301529695505050505050565b6020808252600a90820152695245454e5452414e435960b01b604082015260600190565b81810381811115610a4757610a47611ba5565b5f82601f830112611c57575f5ffd5b815167ffffffffffffffff811115611c7157611c71611a5b565b604051601f8201601f19908116603f0116810167ffffffffffffffff81118282101715611ca057611ca0611a5b565b604052818152838201602001851015611cb7575f5ffd5b8160208501602083015e5f918101602001919091529392505050565b5f5f5f5f60808587031215611ce6575f5ffd5b8451611cf181611869565b602086015190945067ffffffffffffffff811115611d0d575f5ffd5b611d1987828801611c48565b604087015160609097015195989097509350505050565b815167ffffffffffffffff811115611d4a57611d4a611a5b565b611d5e81611d588454611a6f565b84611aa7565b6020601f821160018114611d90575f8315611d795750848201515b5f19600385901b1c1916600184901b178455610a1d565b5f84815260208120601f198516915b82811015611dbf5787850151825560209485019460019092019101611d9f565b5084821015611ddc57868401515f19600387901b60f8161c191681555b50505050600190811b01905550565b5f60208284031215611dfb575f5ffd5b815167ffffffffffffffff811115611e11575f5ffd5b611e1d84828501611c48565b949350505050565b8481526001600160a01b03841660208201526080604082018190525f90611e4e908301856118e5565b90508260608301529594505050505056fea2646970667358221220beb63deefc7d111dd3d4ba70ff1cd0de8fb941c6f685624850486627802f812a64736f6c634300081d0033",
  "linkReferences": {},
  "deployedLinkReferences": {},
  "immutableReferences": {
    "127": [
      {
        "length": 32,
        "start": 957
      },
      {
        "length": 32,
        "start": 4646
      }
    ],
    "130": [
      {
        "length": 32,
        "start": 394
      },
      {
        "length": 32,
        "start": 5645
      }
    ],
    "132": [
      {
        "length": 32,
        "start": 644
      },
      {
        "length": 32,
        "start": 1870
      }
    ]
  },
  "inputSourceName": "project/contracts/EscrowMilestones.sol",
  "buildInfoId": "solc-0_8_29-640ec55b3ae5ebb1ff0110811bc9f566743e874a"
}